{
  "_format": "hh-sol-artifact-1",
  "contractName": "BuyABiskit",
  "sourceName": "contracts/BuyABiskit.sol",
  "abi": [
    {
      "inputs": [],
      "stateMutability": "nonpayable",
      "type": "constructor"
    },
    {
      "inputs": [],
      "name": "CallerNotOwner",
      "type": "error"
    },
    {
      "anonymous": false,
      "inputs": [
        {
          "indexed": true,
          "internalType": "address",
          "name": "from",
          "type": "address"
        },
        {
          "indexed": false,
          "internalType": "uint256",
          "name": "timestamp",
          "type": "uint256"
        },
        {
          "indexed": false,
          "internalType": "string",
          "name": "name",
          "type": "string"
        },
        {
          "indexed": false,
          "internalType": "string",
          "name": "message",
          "type": "string"
        }
      ],
      "name": "NewMemo",
      "type": "event"
    },
    {
      "inputs": [
        {
          "internalType": "string",
          "name": "_name",
          "type": "string"
        },
        {
          "internalType": "string",
          "name": "_message",
          "type": "string"
        }
      ],
      "name": "buyBigBiskit",
      "outputs": [],
      "stateMutability": "payable",
      "type": "function"
    },
    {
      "inputs": [
        {
          "internalType": "string",
          "name": "_name",
          "type": "string"
        },
        {
          "internalType": "string",
          "name": "_message",
          "type": "string"
        }
      ],
      "name": "buyBiskit",
      "outputs": [],
      "stateMutability": "payable",
      "type": "function"
    },
    {
      "inputs": [],
      "name": "getMemos",
      "outputs": [
        {
          "components": [
            {
              "internalType": "address",
              "name": "from",
              "type": "address"
            },
            {
              "internalType": "uint256",
              "name": "timestamp",
              "type": "uint256"
            },
            {
              "internalType": "string",
              "name": "name",
              "type": "string"
            },
            {
              "internalType": "string",
              "name": "message",
              "type": "string"
            }
          ],
          "internalType": "struct BuyABiskit.Memo[]",
          "name": "",
          "type": "tuple[]"
        }
      ],
      "stateMutability": "view",
      "type": "function"
    },
    {
      "inputs": [],
      "name": "withdraw",
      "outputs": [],
      "stateMutability": "payable",
      "type": "function"
    }
  ],
  "bytecode": "0x608060405234801561001057600080fd5b50336000806101000a81548173ffffffffffffffffffffffffffffffffffffffff021916908373ffffffffffffffffffffffffffffffffffffffff160217905550611003806100606000396000f3fe60806040526004361061003f5760003560e01c8063380bbb14146100445780633ccfd60b14610060578063865c51721461006a578063acc2eaed14610095575b600080fd5b61005e60048036038101906100599190610894565b6100b1565b005b610068610274565b005b34801561007657600080fd5b5061007f610393565b60405161008c9190610b11565b60405180910390f35b6100af60048036038101906100aa9190610894565b610576565b005b6611c37937e0800034116100fa576040517f08c379a00000000000000000000000000000000000000000000000000000000081526004016100f190610b90565b60405180910390fd5b6000341161013d576040517f08c379a000000000000000000000000000000000000000000000000000000000815260040161013490610bfc565b60405180910390fd5b600160405180608001604052803373ffffffffffffffffffffffffffffffffffffffff16815260200142815260200184815260200183815250908060018154018082558091505060019003906000526020600020906004020160009091909190915060008201518160000160006101000a81548173ffffffffffffffffffffffffffffffffffffffff021916908373ffffffffffffffffffffffffffffffffffffffff1602179055506020820151816001015560408201518160020190816102059190610e28565b50606082015181600301908161021b9190610e28565b5050503373ffffffffffffffffffffffffffffffffffffffff167fc56140e05f516509ae28110e0f72e17558a7561630dad2647c3ae87d986e365c42848460405161026893929190610f42565b60405180910390a25050565b60008054906101000a900473ffffffffffffffffffffffffffffffffffffffff1673ffffffffffffffffffffffffffffffffffffffff163373ffffffffffffffffffffffffffffffffffffffff16146102f9576040517f5cd8319200000000000000000000000000000000000000000000000000000000815260040160405180910390fd5b60008060009054906101000a900473ffffffffffffffffffffffffffffffffffffffff1673ffffffffffffffffffffffffffffffffffffffff164760405161034090610fb8565b60006040518083038185875af1925050503d806000811461037d576040519150601f19603f3d011682016040523d82523d6000602084013e610382565b606091505b505090508061039057600080fd5b50565b60606001805480602002602001604051908101604052809291908181526020016000905b8282101561056d57838290600052602060002090600402016040518060800160405290816000820160009054906101000a900473ffffffffffffffffffffffffffffffffffffffff1673ffffffffffffffffffffffffffffffffffffffff1673ffffffffffffffffffffffffffffffffffffffff1681526020016001820154815260200160028201805461044a90610c4b565b80601f016020809104026020016040519081016040528092919081815260200182805461047690610c4b565b80156104c35780601f10610498576101008083540402835291602001916104c3565b820191906000526020600020905b8154815290600101906020018083116104a657829003601f168201915b505050505081526020016003820180546104dc90610c4b565b80601f016020809104026020016040519081016040528092919081815260200182805461050890610c4b565b80156105555780601f1061052a57610100808354040283529160200191610555565b820191906000526020600020905b81548152906001019060200180831161053857829003601f168201915b505050505081525050815260200190600101906103b7565b50505050905090565b66038d7ea4c680003410156105c0576040517f08c379a00000000000000000000000000000000000000000000000000000000081526004016105b790610b90565b60405180910390fd5b60003411610603576040517f08c379a00000000000000000000000000000000000000000000000000000000081526004016105fa90610bfc565b60405180910390fd5b600160405180608001604052803373ffffffffffffffffffffffffffffffffffffffff16815260200142815260200184815260200183815250908060018154018082558091505060019003906000526020600020906004020160009091909190915060008201518160000160006101000a81548173ffffffffffffffffffffffffffffffffffffffff021916908373ffffffffffffffffffffffffffffffffffffffff1602179055506020820151816001015560408201518160020190816106cb9190610e28565b5060608201518160030190816106e19190610e28565b5050503373ffffffffffffffffffffffffffffffffffffffff167fc56140e05f516509ae28110e0f72e17558a7561630dad2647c3ae87d986e365c42848460405161072e93929190610f42565b60405180910390a25050565b6000604051905090565b600080fd5b600080fd5b600080fd5b600080fd5b6000601f19601f8301169050919050565b7f4e487b7100000000000000000000000000000000000000000000000000000000600052604160045260246000fd5b6107a182610758565b810181811067ffffffffffffffff821117156107c0576107bf610769565b5b80604052505050565b60006107d361073a565b90506107df8282610798565b919050565b600067ffffffffffffffff8211156107ff576107fe610769565b5b61080882610758565b9050602081019050919050565b82818337600083830152505050565b6000610837610832846107e4565b6107c9565b90508281526020810184848401111561085357610852610753565b5b61085e848285610815565b509392505050565b600082601f83011261087b5761087a61074e565b5b813561088b848260208601610824565b91505092915050565b600080604083850312156108ab576108aa610744565b5b600083013567ffffffffffffffff8111156108c9576108c8610749565b5b6108d585828601610866565b925050602083013567ffffffffffffffff8111156108f6576108f5610749565b5b61090285828601610866565b9150509250929050565b600081519050919050565b600082825260208201905092915050565b6000819050602082019050919050565b600073ffffffffffffffffffffffffffffffffffffffff82169050919050565b600061096382610938565b9050919050565b61097381610958565b82525050565b6000819050919050565b61098c81610979565b82525050565b600081519050919050565b600082825260208201905092915050565b60005b838110156109cc5780820151818401526020810190506109b1565b60008484015250505050565b60006109e382610992565b6109ed818561099d565b93506109fd8185602086016109ae565b610a0681610758565b840191505092915050565b6000608083016000830151610a29600086018261096a565b506020830151610a3c6020860182610983565b5060408301518482036040860152610a5482826109d8565b91505060608301518482036060860152610a6e82826109d8565b9150508091505092915050565b6000610a878383610a11565b905092915050565b6000602082019050919050565b6000610aa78261090c565b610ab18185610917565b935083602082028501610ac385610928565b8060005b85811015610aff5784840389528151610ae08582610a7b565b9450610aeb83610a8f565b925060208a01995050600181019050610ac7565b50829750879550505050505092915050565b60006020820190508181036000830152610b2b8184610a9c565b905092915050565b600082825260208201905092915050565b7f506c6561736520656e746572206d696e696d756d20616d6f756e740000000000600082015250565b6000610b7a601b83610b33565b9150610b8582610b44565b602082019050919050565b60006020820190508181036000830152610ba981610b6d565b9050919050565b7f56616c75652063616e6e6f742062652030000000000000000000000000000000600082015250565b6000610be6601183610b33565b9150610bf182610bb0565b602082019050919050565b60006020820190508181036000830152610c1581610bd9565b9050919050565b7f4e487b7100000000000000000000000000000000000000000000000000000000600052602260045260246000fd5b60006002820490506001821680610c6357607f821691505b602082108103610c7657610c75610c1c565b5b50919050565b60008190508160005260206000209050919050565b60006020601f8301049050919050565b600082821b905092915050565b600060088302610cde7fffffffffffffffffffffffffffffffffffffffffffffffffffffffffffffffff82610ca1565b610ce88683610ca1565b95508019841693508086168417925050509392505050565b6000819050919050565b6000610d25610d20610d1b84610979565b610d00565b610979565b9050919050565b6000819050919050565b610d3f83610d0a565b610d53610d4b82610d2c565b848454610cae565b825550505050565b600090565b610d68610d5b565b610d73818484610d36565b505050565b5b81811015610d9757610d8c600082610d60565b600181019050610d79565b5050565b601f821115610ddc57610dad81610c7c565b610db684610c91565b81016020851015610dc5578190505b610dd9610dd185610c91565b830182610d78565b50505b505050565b600082821c905092915050565b6000610dff60001984600802610de1565b1980831691505092915050565b6000610e188383610dee565b9150826002028217905092915050565b610e3182610992565b67ffffffffffffffff811115610e4a57610e49610769565b5b610e548254610c4b565b610e5f828285610d9b565b600060209050601f831160018114610e925760008415610e80578287015190505b610e8a8582610e0c565b865550610ef2565b601f198416610ea086610c7c565b60005b82811015610ec857848901518255600182019150602085019450602081019050610ea3565b86831015610ee55784890151610ee1601f891682610dee565b8355505b6001600288020188555050505b505050505050565b610f0381610979565b82525050565b6000610f1482610992565b610f1e8185610b33565b9350610f2e8185602086016109ae565b610f3781610758565b840191505092915050565b6000606082019050610f576000830186610efa565b8181036020830152610f698185610f09565b90508181036040830152610f7d8184610f09565b9050949350505050565b600081905092915050565b50565b6000610fa2600083610f87565b9150610fad82610f92565b600082019050919050565b6000610fc382610f95565b915081905091905056fea2646970667358221220aa3c8aeb046f9789480110b5fae6407b8d6d8499030132ed7ac5ae36fda6c8bc64736f6c63430008110033",
  "linkReferences": {},
  "deployedLinkReferences": {}
}